{
  "contractName": "DrugTraceability",
  "abi": [
    {
      "inputs": [],
      "stateMutability": "nonpayable",
      "type": "constructor"
    },
    {
      "anonymous": false,
      "inputs": [
        {
          "indexed": false,
          "internalType": "uint256",
          "name": "index",
          "type": "uint256"
        },
        {
          "indexed": false,
          "internalType": "uint256",
          "name": "timestamp",
          "type": "uint256"
        },
        {
          "indexed": false,
          "internalType": "uint256",
          "name": "proof",
          "type": "uint256"
        },
        {
          "indexed": false,
          "internalType": "string",
          "name": "previousHash",
          "type": "string"
        }
      ],
      "name": "NewBlock",
      "type": "event"
    },
    {
      "anonymous": false,
      "inputs": [
        {
          "indexed": true,
          "internalType": "address",
          "name": "sender",
          "type": "address"
        },
        {
          "indexed": true,
          "internalType": "address",
          "name": "recipient",
          "type": "address"
        },
        {
          "indexed": false,
          "internalType": "string",
          "name": "drugName",
          "type": "string"
        },
        {
          "indexed": false,
          "internalType": "uint256",
          "name": "timestamp",
          "type": "uint256"
        }
      ],
      "name": "NewTransaction",
      "type": "event"
    },
    {
      "anonymous": false,
      "inputs": [
        {
          "indexed": false,
          "internalType": "string",
          "name": "name",
          "type": "string"
        },
        {
          "indexed": false,
          "internalType": "address",
          "name": "recipient",
          "type": "address"
        }
      ],
      "name": "RecipientRegistered",
      "type": "event"
    },
    {
      "inputs": [
        {
          "internalType": "uint256",
          "name": "",
          "type": "uint256"
        }
      ],
      "name": "blockchain",
      "outputs": [
        {
          "internalType": "uint256",
          "name": "index",
          "type": "uint256"
        },
        {
          "internalType": "uint256",
          "name": "timestamp",
          "type": "uint256"
        },
        {
          "internalType": "uint256",
          "name": "proof",
          "type": "uint256"
        },
        {
          "internalType": "string",
          "name": "previousHash",
          "type": "string"
        }
      ],
      "stateMutability": "view",
      "type": "function",
      "constant": true
    },
    {
      "inputs": [
        {
          "internalType": "uint256",
          "name": "",
          "type": "uint256"
        }
      ],
      "name": "currentTransactions",
      "outputs": [
        {
          "internalType": "address",
          "name": "sender",
          "type": "address"
        },
        {
          "internalType": "address",
          "name": "recipient",
          "type": "address"
        },
        {
          "internalType": "string",
          "name": "drugName",
          "type": "string"
        },
        {
          "internalType": "uint256",
          "name": "timestamp",
          "type": "uint256"
        }
      ],
      "stateMutability": "view",
      "type": "function",
      "constant": true
    },
    {
      "inputs": [
        {
          "internalType": "string",
          "name": "",
          "type": "string"
        }
      ],
      "name": "recipientAddresses",
      "outputs": [
        {
          "internalType": "address",
          "name": "",
          "type": "address"
        }
      ],
      "stateMutability": "view",
      "type": "function",
      "constant": true
    },
    {
      "inputs": [
        {
          "internalType": "string",
          "name": "recipientName",
          "type": "string"
        },
        {
          "internalType": "address",
          "name": "recipientAddress",
          "type": "address"
        }
      ],
      "name": "registerRecipient",
      "outputs": [],
      "stateMutability": "nonpayable",
      "type": "function"
    },
    {
      "inputs": [
        {
          "internalType": "string",
          "name": "recipientName",
          "type": "string"
        },
        {
          "internalType": "string",
          "name": "drugName",
          "type": "string"
        }
      ],
      "name": "createTransaction",
      "outputs": [],
      "stateMutability": "nonpayable",
      "type": "function"
    },
    {
      "inputs": [
        {
          "internalType": "uint256",
          "name": "proof",
          "type": "uint256"
        }
      ],
      "name": "mineBlock",
      "outputs": [],
      "stateMutability": "nonpayable",
      "type": "function"
    },
    {
      "inputs": [],
      "name": "getBlockchain",
      "outputs": [
        {
          "components": [
            {
              "internalType": "uint256",
              "name": "index",
              "type": "uint256"
            },
            {
              "internalType": "uint256",
              "name": "timestamp",
              "type": "uint256"
            },
            {
              "components": [
                {
                  "internalType": "address",
                  "name": "sender",
                  "type": "address"
                },
                {
                  "internalType": "address",
                  "name": "recipient",
                  "type": "address"
                },
                {
                  "internalType": "string",
                  "name": "drugName",
                  "type": "string"
                },
                {
                  "internalType": "uint256",
                  "name": "timestamp",
                  "type": "uint256"
                }
              ],
              "internalType": "struct DrugTraceability.Transaction[]",
              "name": "transactions",
              "type": "tuple[]"
            },
            {
              "internalType": "uint256",
              "name": "proof",
              "type": "uint256"
            },
            {
              "internalType": "string",
              "name": "previousHash",
              "type": "string"
            }
          ],
          "internalType": "struct DrugTraceability.Block[]",
          "name": "",
          "type": "tuple[]"
        }
      ],
      "stateMutability": "view",
      "type": "function",
      "constant": true
    },
    {
      "inputs": [],
      "name": "getCurrentTransactions",
      "outputs": [
        {
          "components": [
            {
              "internalType": "address",
              "name": "sender",
              "type": "address"
            },
            {
              "internalType": "address",
              "name": "recipient",
              "type": "address"
            },
            {
              "internalType": "string",
              "name": "drugName",
              "type": "string"
            },
            {
              "internalType": "uint256",
              "name": "timestamp",
              "type": "uint256"
            }
          ],
          "internalType": "struct DrugTraceability.Transaction[]",
          "name": "",
          "type": "tuple[]"
        }
      ],
      "stateMutability": "view",
      "type": "function",
      "constant": true
    }
  ],
  "bytecode": "0x60806040523480156200001157600080fd5b506200005a60646040518060400160405280600c81526020017f47454e455349535f484153480000000000000000000000000000000000000000815250620000c160201b60201c565b6000731234567890abcdef1234567890abcdef123456789050620000ba6040518060400160405280600881526020017f4a6f686e20446f65000000000000000000000000000000000000000000000000815250826200031760201b60201c565b506200098a565b60008060018160018154018082558091505003906000526020600020906005020190506000805490508160000181905550428160010181905550828160030181905550818160040190805190602001906200011e92919062000428565b5060005b600180549050811015620002ba5781600201600182815481106200016f577f4e487b7100000000000000000000000000000000000000000000000000000000600052603260045260246000fd5b906000526020600020906004020190806001815401808255809150506001900390600052602060002090600402016000909190919091506000820160009054906101000a900473ffffffffffffffffffffffffffffffffffffffff168160000160006101000a81548173ffffffffffffffffffffffffffffffffffffffff021916908373ffffffffffffffffffffffffffffffffffffffff1602179055506001820160009054906101000a900473ffffffffffffffffffffffffffffffffffffffff168160010160006101000a81548173ffffffffffffffffffffffffffffffffffffffff021916908373ffffffffffffffffffffffffffffffffffffffff16021790555060028201816002019080546200028a9062000897565b62000297929190620004b9565b506003820154816003015550508080620002b190620008cd565b91505062000122565b5060016000620002cb919062000551565b7fe5596cc43bf3112848aa4f379f67c7b0f647eab05b9c4ec222899924616a78088160000154826001015485856040516200030a9493929190620007a8565b60405180910390a1505050565b600073ffffffffffffffffffffffffffffffffffffffff168173ffffffffffffffffffffffffffffffffffffffff1614156200038a576040517f08c379a0000000000000000000000000000000000000000000000000000000008152600401620003819062000786565b60405180910390fd5b806002836040516200039d919062000739565b908152602001604051809103902060006101000a81548173ffffffffffffffffffffffffffffffffffffffff021916908373ffffffffffffffffffffffffffffffffffffffff1602179055507f014e21873a9e3eac1bd858a5f47c5e6dfdddbfd01552506b1c63bb6be545e01582826040516200041c92919062000752565b60405180910390a15050565b828054620004369062000897565b90600052602060002090601f0160209004810192826200045a5760008555620004a6565b82601f106200047557805160ff1916838001178555620004a6565b82800160010185558215620004a6579182015b82811115620004a557825182559160200191906001019062000488565b5b509050620004b5919062000577565b5090565b828054620004c79062000897565b90600052602060002090601f016020900481019282620004eb57600085556200053e565b82601f10620004fe57805485556200053e565b828001600101855582156200053e57600052602060002091601f016020900482015b828111156200053d57825482559160010191906001019062000520565b5b5090506200054d919062000577565b5090565b508054600082556004029060005260206000209081019062000574919062000596565b50565b5b808211156200059257600081600090555060010162000578565b5090565b5b808211156200061357600080820160006101000a81549073ffffffffffffffffffffffffffffffffffffffff02191690556001820160006101000a81549073ffffffffffffffffffffffffffffffffffffffff021916905560028201600062000601919062000617565b60038201600090555060040162000597565b5090565b508054620006259062000897565b6000825580601f106200063957506200065a565b601f01602090049060005260206000209081019062000659919062000577565b5b50565b620006688162000823565b82525050565b60006200067b82620007fc565b62000687818562000807565b93506200069981856020860162000861565b620006a48162000979565b840191505092915050565b6000620006bc82620007fc565b620006c8818562000818565b9350620006da81856020860162000861565b80840191505092915050565b6000620006f5600f8362000807565b91507f496e76616c6964206164647265737300000000000000000000000000000000006000830152602082019050919050565b620007338162000857565b82525050565b6000620007478284620006af565b915081905092915050565b600060408201905081810360008301526200076e81856200066e565b90506200077f60208301846200065d565b9392505050565b60006020820190508181036000830152620007a181620006e6565b9050919050565b6000608082019050620007bf600083018762000728565b620007ce602083018662000728565b620007dd604083018562000728565b8181036060830152620007f181846200066e565b905095945050505050565b600081519050919050565b600082825260208201905092915050565b600081905092915050565b6000620008308262000837565b9050919050565b600073ffffffffffffffffffffffffffffffffffffffff82169050919050565b6000819050919050565b60005b838110156200088157808201518184015260208101905062000864565b8381111562000891576000848401525b50505050565b60006002820490506001821680620008b057607f821691505b60208210811415620008c757620008c66200094a565b5b50919050565b6000620008da8262000857565b91507fffffffffffffffffffffffffffffffffffffffffffffffffffffffffffffffff82141562000910576200090f6200091b565b5b600182019050919050565b7f4e487b7100000000000000000000000000000000000000000000000000000000600052601160045260246000fd5b7f4e487b7100000000000000000000000000000000000000000000000000000000600052602260045260246000fd5b6000601f19601f8301169050919050565b612057806200099a6000396000f3fe608060405234801561001057600080fd5b50600436106100885760003560e01c8063c25b1eaf1161005b578063c25b1eaf14610118578063df8d1d641461014b578063f5e09eac14610167578063fecc18b41461019757610088565b80631720b1bb1461008d57806335aaaf01146100a95780633d46424f146100dc578063864713c7146100fa575b600080fd5b6100a760048036038101906100a291906115c0565b6101b3565b005b6100c360048036038101906100be91906115c0565b6101cd565b6040516100d39493929190611ac1565b60405180910390f35b6100e46102d5565b6040516100f19190611b0d565b60405180910390f35b61010261058b565b60405161010f9190611b2f565b60405180910390f35b610132600480360381019061012d91906115c0565b610732565b6040516101429493929190611bf1565b60405180910390f35b61016560048036038101906101609190611500565b6107fa565b005b610181600480360381019061017c91906114bf565b610904565b60405161018e9190611aa6565b60405180910390f35b6101b160048036038101906101ac9190611554565b61094d565b005b60006101bd610ba1565b90506101c98282610c59565b5050565b600181815481106101dd57600080fd5b90600052602060002090600402016000915090508060000160009054906101000a900473ffffffffffffffffffffffffffffffffffffffff16908060010160009054906101000a900473ffffffffffffffffffffffffffffffffffffffff169080600201805461024c90611ed0565b80601f016020809104026020016040519081016040528092919081815260200182805461027890611ed0565b80156102c55780601f1061029a576101008083540402835291602001916102c5565b820191906000526020600020905b8154815290600101906020018083116102a857829003601f168201915b5050505050908060030154905084565b60606000805480602002602001604051908101604052809291908181526020016000905b8282101561058257838290600052602060002090600502016040518060a0016040529081600082015481526020016001820154815260200160028201805480602002602001604051908101604052809291908181526020016000905b828210156104cf57838290600052602060002090600402016040518060800160405290816000820160009054906101000a900473ffffffffffffffffffffffffffffffffffffffff1673ffffffffffffffffffffffffffffffffffffffff1673ffffffffffffffffffffffffffffffffffffffff1681526020016001820160009054906101000a900473ffffffffffffffffffffffffffffffffffffffff1673ffffffffffffffffffffffffffffffffffffffff1673ffffffffffffffffffffffffffffffffffffffff16815260200160028201805461043490611ed0565b80601f016020809104026020016040519081016040528092919081815260200182805461046090611ed0565b80156104ad5780601f10610482576101008083540402835291602001916104ad565b820191906000526020600020905b81548152906001019060200180831161049057829003601f168201915b5050505050815260200160038201548152505081526020019060010190610355565b505050508152602001600382015481526020016004820180546104f190611ed0565b80601f016020809104026020016040519081016040528092919081815260200182805461051d90611ed0565b801561056a5780601f1061053f5761010080835404028352916020019161056a565b820191906000526020600020905b81548152906001019060200180831161054d57829003601f168201915b505050505081525050815260200190600101906102f9565b50505050905090565b60606001805480602002602001604051908101604052809291908181526020016000905b8282101561072957838290600052602060002090600402016040518060800160405290816000820160009054906101000a900473ffffffffffffffffffffffffffffffffffffffff1673ffffffffffffffffffffffffffffffffffffffff1673ffffffffffffffffffffffffffffffffffffffff1681526020016001820160009054906101000a900473ffffffffffffffffffffffffffffffffffffffff1673ffffffffffffffffffffffffffffffffffffffff1673ffffffffffffffffffffffffffffffffffffffff16815260200160028201805461068e90611ed0565b80601f01602080910402602001604051908101604052809291908181526020018280546106ba90611ed0565b80156107075780601f106106dc57610100808354040283529160200191610707565b820191906000526020600020905b8154815290600101906020018083116106ea57829003601f168201915b50505050508152602001600382015481525050815260200190600101906105af565b50505050905090565b6000818154811061074257600080fd5b906000526020600020906005020160009150905080600001549080600101549080600301549080600401805461077790611ed0565b80601f01602080910402602001604051908101604052809291908181526020018280546107a390611ed0565b80156107f05780601f106107c5576101008083540402835291602001916107f0565b820191906000526020600020905b8154815290600101906020018083116107d357829003601f168201915b5050505050905084565b600073ffffffffffffffffffffffffffffffffffffffff168173ffffffffffffffffffffffffffffffffffffffff16141561086a576040517f08c379a000000000000000000000000000000000000000000000000000000000815260040161086190611bb1565b60405180910390fd5b8060028360405161087b9190611a45565b908152602001604051809103902060006101000a81548173ffffffffffffffffffffffffffffffffffffffff021916908373ffffffffffffffffffffffffffffffffffffffff1602179055507f014e21873a9e3eac1bd858a5f47c5e6dfdddbfd01552506b1c63bb6be545e01582826040516108f8929190611b51565b60405180910390a15050565b6002818051602081018201805184825260208301602085012081835280955050505050506000915054906101000a900473ffffffffffffffffffffffffffffffffffffffff1681565b600060028360405161095f9190611a45565b908152602001604051809103902060009054906101000a900473ffffffffffffffffffffffffffffffffffffffff169050600073ffffffffffffffffffffffffffffffffffffffff168173ffffffffffffffffffffffffffffffffffffffff161415610a00576040517f08c379a00000000000000000000000000000000000000000000000000000000081526004016109f790611bd1565b60405180910390fd5b600060405180608001604052803373ffffffffffffffffffffffffffffffffffffffff1681526020018373ffffffffffffffffffffffffffffffffffffffff168152602001848152602001428152509050600181908060018154018082558091505060019003906000526020600020906004020160009091909190915060008201518160000160006101000a81548173ffffffffffffffffffffffffffffffffffffffff021916908373ffffffffffffffffffffffffffffffffffffffff16021790555060208201518160010160006101000a81548173ffffffffffffffffffffffffffffffffffffffff021916908373ffffffffffffffffffffffffffffffffffffffff1602179055506040820151816002019080519060200190610b2792919061121c565b506060820151816003015550508173ffffffffffffffffffffffffffffffffffffffff163373ffffffffffffffffffffffffffffffffffffffff167f3ce5202645e1d01d0fbb78feeb25527c05507b8ad97b043aff06094945b5836f8542604051610b93929190611b81565b60405180910390a350505050565b6060600080805490501415610bed576040518060400160405280600c81526020017f47454e455349535f4841534800000000000000000000000000000000000000008152509050610c56565b6000806001600080549050610c029190611e1e565b81548110610c39577f4e487b7100000000000000000000000000000000000000000000000000000000600052603260045260246000fd5b90600052602060002090600502019050610c5281610ea0565b9150505b90565b6000806001816001815401808255809150500390600052602060002090600502019050600080549050816000018190555042816001018190555082816003018190555081816004019080519060200190610cb492919061121c565b5060005b600180549050811015610e47578160020160018281548110610d03577f4e487b7100000000000000000000000000000000000000000000000000000000600052603260045260246000fd5b906000526020600020906004020190806001815401808255809150506001900390600052602060002090600402016000909190919091506000820160009054906101000a900473ffffffffffffffffffffffffffffffffffffffff168160000160006101000a81548173ffffffffffffffffffffffffffffffffffffffff021916908373ffffffffffffffffffffffffffffffffffffffff1602179055506001820160009054906101000a900473ffffffffffffffffffffffffffffffffffffffff168160010160006101000a81548173ffffffffffffffffffffffffffffffffffffffff021916908373ffffffffffffffffffffffffffffffffffffffff1602179055506002820181600201908054610e1c90611ed0565b610e279291906112a2565b506003820154816003015550508080610e3f90611f02565b915050610cb8565b5060016000610e56919061132f565b7fe5596cc43bf3112848aa4f379f67c7b0f647eab05b9c4ec222899924616a7808816000015482600101548585604051610e939493929190611bf1565b60405180910390a1505050565b6060600082600001548360010154846003015485600401604051602001610eca9493929190611a5c565b6040516020818303038152906040529050610f0a81604051602001610eef9190611a45565b60405160208183030381529060405280519060200120610f12565b915050919050565b606060006040518060400160405280601081526020017f303132333435363738396162636465660000000000000000000000000000000081525090506000604067ffffffffffffffff811115610f91577f4e487b7100000000000000000000000000000000000000000000000000000000600052604160045260246000fd5b6040519080825280601f01601f191660200182016040528015610fc35781602001600182028036833780820191505090505b50905060005b60208110156112115782600486836020811061100e577f4e487b7100000000000000000000000000000000000000000000000000000000600052603260045260246000fd5b1a60f81b7effffffffffffffffffffffffffffffffffffffffffffffffffffffffffffff1916901c60f81c60ff1681518110611073577f4e487b7100000000000000000000000000000000000000000000000000000000600052603260045260246000fd5b602001015160f81c60f81b8260028361108c9190611dc4565b815181106110c3577f4e487b7100000000000000000000000000000000000000000000000000000000600052603260045260246000fd5b60200101907effffffffffffffffffffffffffffffffffffffffffffffffffffffffffffff1916908160001a90535082600f60f81b868360208110611131577f4e487b7100000000000000000000000000000000000000000000000000000000600052603260045260246000fd5b1a60f81b1660f81c60ff1681518110611173577f4e487b7100000000000000000000000000000000000000000000000000000000600052603260045260246000fd5b602001015160f81c60f81b8260028361118c9190611dc4565b60016111989190611d6e565b815181106111cf577f4e487b7100000000000000000000000000000000000000000000000000000000600052603260045260246000fd5b60200101907effffffffffffffffffffffffffffffffffffffffffffffffffffffffffffff1916908160001a905350808061120990611f02565b915050610fc9565b508092505050919050565b82805461122890611ed0565b90600052602060002090601f01602090048101928261124a5760008555611291565b82601f1061126357805160ff1916838001178555611291565b82800160010185558215611291579182015b82811115611290578251825591602001919060010190611275565b5b50905061129e9190611353565b5090565b8280546112ae90611ed0565b90600052602060002090601f0160209004810192826112d0576000855561131e565b82601f106112e1578054855561131e565b8280016001018555821561131e57600052602060002091601f016020900482015b8281111561131d578254825591600101919060010190611302565b5b50905061132b9190611353565b5090565b50805460008255600402906000526020600020908101906113509190611370565b50565b5b8082111561136c576000816000905550600101611354565b5090565b5b808211156113e957600080820160006101000a81549073ffffffffffffffffffffffffffffffffffffffff02191690556001820160006101000a81549073ffffffffffffffffffffffffffffffffffffffff02191690556002820160006113d891906113ed565b600382016000905550600401611371565b5090565b5080546113f990611ed0565b6000825580601f1061140b575061142a565b601f0160209004906000526020600020908101906114299190611353565b5b50565b600061144061143b84611c6e565b611c3d565b90508281526020810184848401111561145857600080fd5b611463848285611e8e565b509392505050565b60008135905061147a81611ff3565b92915050565b600082601f83011261149157600080fd5b81356114a184826020860161142d565b91505092915050565b6000813590506114b98161200a565b92915050565b6000602082840312156114d157600080fd5b600082013567ffffffffffffffff8111156114eb57600080fd5b6114f784828501611480565b91505092915050565b6000806040838503121561151357600080fd5b600083013567ffffffffffffffff81111561152d57600080fd5b61153985828601611480565b925050602061154a8582860161146b565b9150509250929050565b6000806040838503121561156757600080fd5b600083013567ffffffffffffffff81111561158157600080fd5b61158d85828601611480565b925050602083013567ffffffffffffffff8111156115aa57600080fd5b6115b685828601611480565b9150509250929050565b6000602082840312156115d257600080fd5b60006115e0848285016114aa565b91505092915050565b60006115f58383611930565b905092915050565b600061160983836119ad565b905092915050565b61161a81611e52565b82525050565b61162981611e52565b82525050565b600061163a82611cd3565b6116448185611d0e565b93508360208202850161165685611c9e565b8060005b85811015611692578484038952815161167385826115e9565b945061167e83611cf4565b925060208a0199505060018101905061165a565b50829750879550505050505092915050565b60006116af82611cde565b6116b98185611d1f565b9350836020820285016116cb85611cae565b8060005b8581101561170757848403895281516116e885826115fd565b94506116f383611d01565b925060208a019950506001810190506116cf565b50829750879550505050505092915050565b600061172482611cde565b61172e8185611d30565b93508360208202850161174085611cae565b8060005b8581101561177c578484038952815161175d85826115fd565b945061176883611d01565b925060208a01995050600181019050611744565b50829750879550505050505092915050565b600061179982611ce9565b6117a38185611d41565b93506117b3818560208601611e9d565b6117bc81611fe2565b840191505092915050565b60006117d282611ce9565b6117dc8185611d52565b93506117ec818560208601611e9d565b6117f581611fe2565b840191505092915050565b600061180b82611ce9565b6118158185611d63565b9350611825818560208601611e9d565b80840191505092915050565b6000815461183e81611ed0565b6118488186611d63565b945060018216600081146118635760018114611874576118a7565b60ff198316865281860193506118a7565b61187d85611cbe565b60005b8381101561189f57815481890152600182019150602081019050611880565b838801955050505b50505092915050565b60006118bd600f83611d52565b91507f496e76616c6964206164647265737300000000000000000000000000000000006000830152602082019050919050565b60006118fd601b83611d52565b91507f526563697069656e742061646472657373206e6f7420666f756e6400000000006000830152602082019050919050565b600060a0830160008301516119486000860182611a10565b50602083015161195b6020860182611a10565b506040830151848203604086015261197382826116a4565b91505060608301516119886060860182611a10565b50608083015184820360808601526119a0828261178e565b9150508091505092915050565b60006080830160008301516119c56000860182611611565b5060208301516119d86020860182611611565b50604083015184820360408601526119f0828261178e565b9150506060830151611a056060860182611a10565b508091505092915050565b611a1981611e84565b82525050565b611a2881611e84565b82525050565b611a3f611a3a82611e84565b611f4b565b82525050565b6000611a518284611800565b915081905092915050565b6000611a688287611a2e565b602082019150611a788286611a2e565b602082019150611a888285611a2e565b602082019150611a988284611831565b915081905095945050505050565b6000602082019050611abb6000830184611620565b92915050565b6000608082019050611ad66000830187611620565b611ae36020830186611620565b8181036040830152611af581856117c7565b9050611b046060830184611a1f565b95945050505050565b60006020820190508181036000830152611b27818461162f565b905092915050565b60006020820190508181036000830152611b498184611719565b905092915050565b60006040820190508181036000830152611b6b81856117c7565b9050611b7a6020830184611620565b9392505050565b60006040820190508181036000830152611b9b81856117c7565b9050611baa6020830184611a1f565b9392505050565b60006020820190508181036000830152611bca816118b0565b9050919050565b60006020820190508181036000830152611bea816118f0565b9050919050565b6000608082019050611c066000830187611a1f565b611c136020830186611a1f565b611c206040830185611a1f565b8181036060830152611c3281846117c7565b905095945050505050565b6000604051905081810181811067ffffffffffffffff82111715611c6457611c63611fb3565b5b8060405250919050565b600067ffffffffffffffff821115611c8957611c88611fb3565b5b601f19601f8301169050602081019050919050565b6000819050602082019050919050565b6000819050602082019050919050565b60008190508160005260206000209050919050565b600081519050919050565b600081519050919050565b600081519050919050565b6000602082019050919050565b6000602082019050919050565b600082825260208201905092915050565b600082825260208201905092915050565b600082825260208201905092915050565b600082825260208201905092915050565b600082825260208201905092915050565b600081905092915050565b6000611d7982611e84565b9150611d8483611e84565b9250827fffffffffffffffffffffffffffffffffffffffffffffffffffffffffffffffff03821115611db957611db8611f55565b5b828201905092915050565b6000611dcf82611e84565b9150611dda83611e84565b9250817fffffffffffffffffffffffffffffffffffffffffffffffffffffffffffffffff0483118215151615611e1357611e12611f55565b5b828202905092915050565b6000611e2982611e84565b9150611e3483611e84565b925082821015611e4757611e46611f55565b5b828203905092915050565b6000611e5d82611e64565b9050919050565b600073ffffffffffffffffffffffffffffffffffffffff82169050919050565b6000819050919050565b82818337600083830152505050565b60005b83811015611ebb578082015181840152602081019050611ea0565b83811115611eca576000848401525b50505050565b60006002820490506001821680611ee857607f821691505b60208210811415611efc57611efb611f84565b5b50919050565b6000611f0d82611e84565b91507fffffffffffffffffffffffffffffffffffffffffffffffffffffffffffffffff821415611f4057611f3f611f55565b5b600182019050919050565b6000819050919050565b7f4e487b7100000000000000000000000000000000000000000000000000000000600052601160045260246000fd5b7f4e487b7100000000000000000000000000000000000000000000000000000000600052602260045260246000fd5b7f4e487b7100000000000000000000000000000000000000000000000000000000600052604160045260246000fd5b6000601f19601f8301169050919050565b611ffc81611e52565b811461200757600080fd5b50565b61201381611e84565b811461201e57600080fd5b5056fea26469706673582212209b9402984fb301d096d9b623398c244569b03d5c0c8b4a6b6a2a7e91f2e8e0ae64736f6c63430008000033",
  "immutableReferences": {},
  "source": "// SPDX-License-Identifier: MIT\r\npragma solidity ^0.8.0;\r\n\r\ncontract DrugTraceability {\r\n    // Struct for storing transaction details\r\n    struct Transaction {\r\n        address sender;\r\n        address recipient;\r\n        string drugName;\r\n        uint256 timestamp;\r\n    }\r\n\r\n    // Struct for storing block details\r\n    struct Block {\r\n        uint256 index;\r\n        uint256 timestamp;\r\n        Transaction[] transactions;\r\n        uint256 proof;\r\n        string previousHash;\r\n    }\r\n\r\n    // Blockchain and transaction storage\r\n    Block[] public blockchain;\r\n    Transaction[] public currentTransactions;\r\n\r\n    // Mapping from recipient name to address\r\n    mapping(string => address) public recipientAddresses;\r\n\r\n    // Events\r\n    event NewBlock(uint256 index, uint256 timestamp, uint256 proof, string previousHash);\r\n    event NewTransaction(address indexed sender, address indexed recipient, string drugName, uint256 timestamp);\r\n    event RecipientRegistered(string name, address recipient);\r\n\r\n    // Constructor to create the genesis block and assign a default recipient\r\n    constructor() {\r\n        // Create the genesis block\r\n        _createBlock(100, \"GENESIS_HASH\");\r\n\r\n        // Register a default recipient (\"John Doe\") for testing\r\n        address johnDoeAddress = 0x1234567890AbcdEF1234567890aBcdef12345678; // Correct checksummed address\r\n\r\n        registerRecipient(\"John Doe\", johnDoeAddress);\r\n    }\r\n\r\n    // Private function to create a new block\r\n    function _createBlock(uint256 proof, string memory previousHash) private {\r\n        Block storage newBlock = blockchain.push();\r\n\r\n        newBlock.index = blockchain.length; // Starts from 1 since it's length\r\n        newBlock.timestamp = block.timestamp;\r\n        newBlock.proof = proof;\r\n        newBlock.previousHash = previousHash;\r\n\r\n        // Copy transactions from currentTransactions to the new block's transaction array\r\n        for (uint256 i = 0; i < currentTransactions.length; i++) {\r\n            newBlock.transactions.push(currentTransactions[i]);\r\n        }\r\n\r\n        // Clear currentTransactions\r\n        delete currentTransactions;\r\n\r\n        emit NewBlock(newBlock.index, newBlock.timestamp, proof, previousHash);\r\n    }\r\n\r\n    // Function to register a recipient name and address\r\n    function registerRecipient(string memory recipientName, address recipientAddress) public {\r\n        require(recipientAddress != address(0), \"Invalid address\");\r\n        recipientAddresses[recipientName] = recipientAddress;\r\n\r\n        emit RecipientRegistered(recipientName, recipientAddress);\r\n    }\r\n\r\n    // Function to create a new transaction\r\n    function createTransaction(string memory recipientName, string memory drugName) public {\r\n        // Get recipient address by name\r\n        address recipient = recipientAddresses[recipientName];\r\n        require(recipient != address(0), \"Recipient address not found\");\r\n\r\n        // Create a new transaction\r\n        Transaction memory transaction = Transaction({\r\n            sender: msg.sender,\r\n            recipient: recipient,\r\n            drugName: drugName,\r\n            timestamp: block.timestamp\r\n        });\r\n\r\n        currentTransactions.push(transaction);\r\n\r\n        emit NewTransaction(msg.sender, recipient, drugName, block.timestamp);\r\n    }\r\n\r\n    // Function to mine a new block\r\n    function mineBlock(uint256 proof) public {\r\n        string memory previousHash = _hashLastBlock();\r\n        _createBlock(proof, previousHash);\r\n    }\r\n\r\n    // Private function to hash the last block\r\n    function _hashLastBlock() private view returns (string memory) {\r\n        if (blockchain.length == 0) {\r\n            return \"GENESIS_HASH\";\r\n        }\r\n\r\n        Block storage lastBlock = blockchain[blockchain.length - 1];\r\n        return _hashBlock(lastBlock);\r\n    }\r\n\r\n    // Private function to hash a block\r\n    function _hashBlock(Block storage targetBlock) private view returns (string memory) {\r\n        // Serialize block data\r\n        string memory blockData = string(\r\n            abi.encodePacked(\r\n                targetBlock.index,\r\n                targetBlock.timestamp,\r\n                targetBlock.proof,\r\n                targetBlock.previousHash\r\n            )\r\n        );\r\n\r\n        return _toHexString(keccak256(abi.encodePacked(blockData)));\r\n    }\r\n\r\n    // Private function to convert bytes32 to hexadecimal string\r\n    function _toHexString(bytes32 hash) private pure returns (string memory) {\r\n        // Convert bytes32 to hexadecimal string\r\n        bytes memory alphabet = \"0123456789abcdef\";\r\n        bytes memory str = new bytes(64);\r\n\r\n        for (uint256 i = 0; i < 32; i++) {\r\n            str[i * 2] = alphabet[uint8(hash[i] >> 4)];\r\n            str[1 + i * 2] = alphabet[uint8(hash[i] & 0x0f)];\r\n        }\r\n\r\n        return string(str);\r\n    }\r\n\r\n    // Getter functions\r\n    function getBlockchain() public view returns (Block[] memory) {\r\n        return blockchain;\r\n    }\r\n\r\n    function getCurrentTransactions() public view returns (Transaction[] memory) {\r\n        return currentTransactions;\r\n    }\r\n}\r\n",
  "sourcePath": "D:\\drug\\contracts\\DrugTraceability.sol",
  "compiler": {
    "name": "solc",
    "version": "0.8.0+commit.c7dfd78e.Emscripten.clang"
  },
  "schemaVersion": "3.4.16",
  "updatedAt": "2024-12-03T03:54:38.504Z",
  "networkType": "ethereum",
  "devdoc": {
    "kind": "dev",
    "methods": {},
    "version": 1
  },
  "userdoc": {
    "kind": "user",
    "methods": {},
    "version": 1
  }
}